:02000004080AE8
:1000000000000A081C2A0A08000005000600050175
:080010000402EA0300000000F5
:10001800B8250A0809480A4908B5884205D0094A96
:10002800824202D0121A02F0EFF90748074A00216B
:10003800121A02F0F4F9064808BD00BF00030020B8
:1000480084290A087003002070030020100900208A
:100058001009002070B501F0A3FF074B074C1E469E
:10006800E41AA4080025A54204D056F8253098477C
:100078000135F8E770BD00BF44290A0878290A0845
:1000880000F032B808B500F0B3F8BDE8084001F058
:1000980049BF01F0E7BB0078B0FA80F0400970472B
:1000A800012303707047000008B501F0A4FD024B5E
:1000B8001860002008BD00BF0003002038B50024E8
:1000C800084801F04FFAA5B2854204F1010406D2AE
:1000D8004FF0FF122946034801F0F4F9F0E7002039
:1000E80038BD00BF7403002010B50F4C204600F047
:1000F800F9F820460D4C00F02BF9002302220C4998
:100108000C4801F087FB0C4A0C49204601F0DCFB47
:100118000B4A0C49204601F0D7FB2046BDE81040A9
:10012800094A0A4901F0D0BB74030020A5180A083F
:1001380000030020CC250A08D7250A08B1000A08C0
:10014800E5250A08C5000A08F2250A08ED010A088B
:10015800542809D8A0EB8001013900EB40000022A7
:10016800C9B2C0B201F0F9B9A9280BD85538C0B244
:1001780000EB4002A0EB80000138D2B20021C0B2EF
:1001880001F0EBB95630C1B2A1EB8102013A01EBA3
:100198004101D2B2C9B2002001F0DFB970B50646FC
:1001A800002500240E4801F0DDF984420BD26019C5
:1001B800C0B2FFF7CDFF214602460134084801F0DE
:1001C80081F9A4B2EEE70648013500F0C1F8ADB2F6
:1001D800304601F057FBB5F5807FE2D170BD00BF16
:1001E8007403002008B51420FFF7D8FF002008BDCD
:1001F8001FB5094B0948197801F0B6F9084968464E
:1002080001F0CCFC1420FFF7C9FF684601F07FFC21
:1002180005B05DF804FB00BF000300207403002054
:100228006A260A0837B501F0F7F94FF69C73134CA4
:10023800002563804FF6FF730120A380257001F02D
:10024800C5FA02A840F8045D2A46294601F0C4F917
:10025800019B1E2B04D10323237011236580A380E7
:10026800002305226321064800F061F8054A064983
:10027800034801F069FF03B030BD00BF88030020C8
:10028800740300207003002099020A0801F0B4B931
:1002980010B50446C06808B101F0E4FA23781BB130
:1002A8000021E07901F0CCFE204610BD38B50446A7
:1002B800C0680D4608B101F0D5FAA379062B0CBF2A
:1002C80004200320684380B2A08001F0C3FAE060F4
:1002D80028B1A288002102F0A2F8658038BDA0806C
:1002E800608038BD10B504460121C07901F0A8FE30
:1002F8000021E07901F0B5FE0123237010BD38B567
:10030800037805460C461BB10021C07901F098FE20
:100318002B78EC7153B1A4B22046012101F090FE74
:100328002046BDE83840002101F09BBE38BD70B5BD
:10033800044616460025837105700572C56005617F
:10034800FFF7B4FF20463146FFF7D9FF204670BDBE
:10035800C368002B00F08E852DE9F04104468379AF
:1003680086B0023BDBB2042B96BF294A322552F8ED
:100378002350FFF78BFF2369C01AA842F9D372B63E
:10038800A179A3880229ADF80A30D4F80CE000F06E
:100398007282072900F06F82062900F0328405294D
:1003A80000F0AB83082900F0A883002940F063859A
:1003B800184A4FF40006BDF80A309BB2002B00F033
:1003C80095830496BDF80A300EF10305033B9BB2F2
:1003D800ADF80A309EF80030DBB28DF807309EF891
:1003E8000130DBB28DF806309EF80230DBB28DF8B2
:1003F80008309DF807709DF806309DF808001B022C
:1004080043EA0743034303938DF805101BE100BF3C
:1004180004260A0890030020004600BF00BF00BF62
:1004280000BF00BF00BF00BF00BF00BF00BF00BFCC
:1004380000BF00BF00BF00BF00BF00BF00BF00BFBC
:1004480000BF00BF00BF00BF00BF00BF00BF00BFAC
:1004580000BF00BF00BF00BF00BF00BF00BF00BF9C
:1004680000BF00BF00BF00BF00BF00BF00BF00BF8C
:1004780000BF00BF00BF00BF00BF00BF00BF00BF7C
:1004880000BF00BF00BF00BF00BF00BF00BF00BF6C
:1004980000BF00BF00BF00BF00BF00BF00BF00BF5C
:1004A80000BF00BF00BF00BF00BF00BF00BF00BF4C
:1004B80000BF00BF00BF00BF00BF00BF00BF00BF3C
:1004C80000BF00BF00BF00BF00BF00BF00BF00BF2C
:1004D80000BF00BF00BF00BF00BF00BF00BF00BF1C
:1004E80000BF00BF00BF00BF00BF00BF00BF00BF0C
:1004F80000BF00BF00BF00BF00BF00BF00BF00BFFC
:1005080000BF00BF00BF00BF00BF00BF00BF00BFEB
:1005180000BF00BF00BF00BF00BF00BF00BF00BFDB
:10052800E3791068C3EBC30300EB8307BF8850F877
:1005380023305F83004600BF00BF00BF00BF00BF7D
:1005480000BF00BF00BF00BF00BF00BF00BF00BFAB
:1005580000BF00BF00BF00BF00BF00BF00BF00BF9B
:1005680000BF00BF00BF00BF00BF00BF00BF00BF8B
:1005780000BF00BF00BF00BF00BF00BF00BF00BF7B
:1005880000BF00BF00BF00BF00BF00BF00BF00BF6B
:1005980000BF00BF00BF00BF00BF00BF00BF00BF5B
:1005A80000BF00BF00BF00BF00BF00BF00BF00BF4B
:1005B80000BF00BF00BF00BF00BF00BF00BF00BF3B
:1005C80000BF00BF00BF00BF00BF00BF00BF00BF2B
:1005D80000BF00BF00BF00BF00BF00BF00BF00BF1B
:1005E80000BF00BF00BF00BF00BF00BF00BF00BF0B
:1005F80000BF00BF00BF00BF00BF00BF00BF00BFFB
:1006080000BF00BF00BF00BF00BF00BF00BF00BFEA
:1006180000BF00BF00BF00BF00BF00BF00BF00BFDA
:1006280000BF00BF00BF00BF00BF00BF00BF049BEA
:100638005B0804939DF805300133DBB2172B8DF866
:10064800053000F2DB82E3791068C3EBC30300EBEB
:100658008307BF8850F823301F830398049B1842F0
:100668007FF4DAAE004600BF00BF00BF00BF00BF86
:1006780000BF00BF00BF00BF00BF00BF00BF00BF7A
:1006880000BF00BF00BF00BF00BF00BF00BF00BF6A
:1006980000BF00BF00BF00BF00BF00BF00BF00BF5A
:1006A80000BF00BF00BF00BF00BF00BF00BF00BF4A
:1006B80000BF00BF00BFE3791068C3EBC30300EBC2
:1006C8008307BF8850F823305F83004600BF00BF10
:1006D80000BF00BF00BF00BF00BF00BF00BF00BF1A
:1006E80000BF00BF00BF00BF00BF00BF00BF00BF0A
:1006F80000BF00BF00BF00BF00BF00BF00BF00BFFA
:1007080000BF00BF00BF00BF00BF00BF00BF00BFE9
:1007180000BF00BF00BF00BF00BF00BF00BF00BFD9
:1007280000BF00BF00BF00BF00BF00BF00BF00BFC9
:1007380000BF00BF00BF00BF00BF00BF00BF00BFB9
:1007480000BF00BF00BF00BF00BF00BF00BF00BFA9
:1007580000BF00BF00BF00BF00BF00BF00BF00BF99
:1007680000BF00BF00BF00BF00BF00BF00BF00BF89
:1007780000BF00BF00BF00BF00BF00BF00BF00BF79
:1007880000BF00BF00BF00BF00BF00BF00BF00BF69
:1007980000BF00BF00BF00BF00BF00BF00BF00BF59
:1007A80000BF00BF00BF00BF00BF00BF00BF00BF49
:1007B80000BF00BF00BF00BF00BF00BF00BF00BF39
:1007C80000BF00BF00BF00BF00BF00BF00BF00BF29
:1007D80000BF00BF00BF00BF00BF00BF00BF00BF19
:1007E80000BF00BF00BF00BF00BF00BF00BF00BF09
:1007F80000BF00BF00BF00BF00BF00BF00BF00BFF9
:1008080000BF00BF00BF00BF00BF00BF00BF00BFE8
:1008180000BF00BF00BF00BF00BF00BF00BF00BFD8
:1008280000BF00BF00BF00BF00BF00BF00BF00BFC8
:1008380000BF00BF00BF00BF00BF00BF00BF00BFB8
:1008480000BF00BF00BF00BF00BF00BF00BF00BFA8
:1008580000BF00BF00BF00BF00BF00BF00BF00BF98
:1008680000BF00BF00BF00BF00BF00BF00BF00BF88
:1008780000BF00BFDBE6BDF80A30174A9BB24FF451
:1008880000050026002B00F031810495BDF80A30E0
:100898000EF10301033B9BB2ADF80A309EF800301D
:1008A800DBB28DF806309EF80130DBB28DF80730E8
:1008B8009EF80230DBB28DF808309DF806309DF8BE
:1008C80007009DF80870000240EA03433B43039386
:1008D8008DF8056080E000BF90030020004600BF4F
:1008E80000BF00BF00BF00BF00BF00BF00BF00BF08
:1008F80000BF00BF00BF00BF00BF00BF00BF00BFF8
:1009080000BF00BF00BF00BF00BF00BF00BF00BFE7
:1009180000BF00BF00BF00BF00BF00BF00BF00BFD7
:1009280000BF00BF00BF00BF00BF00BF00BF00BFC7
:1009380000BF00BF00BF00BF00BF00BF00BF00BFB7
:1009480000BF00BF00BF00BF00BF00BF00BF00BFA7
:1009580000BF00BF00BF00BF00BF00BF00BF00BF97
:1009680000BF00BF00BF00BF00BF00BF00BF00BF87
:1009780000BF00BF00BFE3791068C3EBC30300EBFF
:100988008307BF8850F823305F83004600BF00BF4D
:1009980000BF00BF00BF00BF00BF00BF00BF00BF57
:1009A80000BF00BF00BF00BF00BF00BF00BF00BF47
:1009B80000BF00BF00BF00BF00BF00BF00BF00BF37
:1009C800049B5B0804939DF805300133DBB2172BB9
:1009D8008DF8053000F28380E3791068C3EBC30318
:1009E80000EB8307BF8850F823301F830398049BCC
:1009F80018427FF473AF004600BF00BF00BF00BFBE
:100A080000BF00BF00BF00BF00BF00BF00BF00BFE6
:100A180000BF00BF00BF00BF00BF00BF00BFE37939
:100A28001068C3EBC30300EB8307BF8850F823307B
:100A38005F83004600BF00BF00BF00BF00BF00BF0C
:100A480000BF00BF00BF00BF00BF00BF00BF00BFA6
:100A580000BF00BF00BF00BF00BF00BF00BF00BF96
:100A680000BF00BF00BF00BF00BF00BF00BF00BF86
:100A780000BF00BF00BF00BF00BF00BF00BF00BF76
:100A880000BF00BF00BF00BF00BF00BF00BF00BF66
:100A980000BF00BF00BF00BF00BF00BF00BF00BF56
:100AA80000BF00BF00BF00BF00BF00BF00BF00BF46
:100AB80000BF00BF00BF00BF00BF00BF00BF00BF36
:100AC80000BF00BF00BF00BF00BF00BF00BF00BF26
:100AD80000BF00BF00BF00BF00BF00BF70E7BDF888
:100AE8000A308E469BB2002B7FF4CFAE62B6FFF77A
:100AF800CDFB206106B0BDE8F0815E4B5E4A18462A
:100B080011684FF400080027BDF80A2092B2002AA5
:100B1800ECD0CDF81080BDF80A200EF10305033A99
:100B280092B2ADF80A209EF80020D2B28DF80620C5
:100B38009EF80120D2B28DF807209EF80220D2B28A
:100B48008DF808209DF806209DF807E09DF808C05C
:100B58004FEA0E2E4EEA024242EA0C0203928DF848
:100B68000570E2795E68C2EBC20201EB820EBEF844
:100B780004E051F822200596A2F818E0039E049A92
:100B8800164223D05A68059E921B4F2AFAD9E27959
:100B9800C2EBC20201EB820EBEF804E051F822203B
:100BA800A2F81AE0426805925A68059E921B072A25
:100BB800FAD9049A520804929DF805200132D2B25B
:100BC800172A8DF80520CCD9AE469DE75A68059EB0
:100BD800921B182AFAD9E279C2EBC20201EB820E03
:100BE800BEF804E051F82220A2F81AE04268059203
:100BF8005A68059E921B452AFAD9DAE7AE46FFF7EE
:100C0800DABB1D4A4FF000450026BDF80A309BB2FA
:100C1800002B3FF46BAF0495BDF80A300EF10401C8
:100C2800043B9BB2ADF80A309EF80030DBB28DF879
:100C380007309EF80130DBB28DF806309EF802309E
:100C4800DBB28DF808309EF80330DBB28DF809303E
:100C58009DF807309DF806709DF808E03F049DF860
:100C6800090047EA0363034343EA0E2303938DF81D
:100C780005607EE0001000E090030020004600BF01
:100C880000BF00BF00BF00BF00BF00BF00BF00BF64
:100C980000BF00BF00BF00BF00BF00BF00BF00BF54
:100CA80000BF00BF00BF00BF00BF00BF00BF00BF44
:100CB80000BF00BF00BF00BF00BF00BF00BF00BF34
:100CC80000BF00BF00BF00BF00BF00BF00BF00BF24
:100CD80000BF00BF00BF00BF00BF00BF00BF00BF14
:100CE80000BF00BF00BF00BF00BFE3791068C3EBBF
:100CF800C30300EB8307BF8850F823305F830046A7
:100D080000BF00BF00BF00BF00BF00BF00BF00BFE3
:100D180000BF00BF00BF00BF00BF00BF00BF00BFD3
:100D280000BF00BF00BF00BF00BF00BF00BF00BFC3
:100D380000BF00BF00BF00BF00BF00BF00BF00BFB3
:100D480000BF00BF00BF00BF00BF00BF00BF00BFA3
:100D580000BF00BF00BF00BF00BF00BF049B5B080F
:100D680004939DF805300133DBB21F2B8DF8053055
:100D78007ED8E3791068C3EBC30300EB8307BF8811
:100D880050F823301F830398049B18427FF476AFF2
:100D9800004600BF00BF00BF00BF00BF00BF00BFCC
:100DA80000BF00BF00BF00BF00BF00BF00BF00BF43
:100DB80000BF00BF00BF00BFE3791068C3EBC303E7
:100DC80000EB8307BF8850F823305F83004600BFDD
:100DD80000BF00BF00BF00BF00BF00BF00BF00BF13
:100DE80000BF00BF00BF00BF00BF00BF00BF00BF03
:100DF80000BF00BF00BF00BF00BF00BF00BF00BFF3
:100E080000BF00BF00BF00BF00BF00BF00BF00BFE2
:100E180000BF00BF00BF00BF00BF00BF00BF00BFD2
:100E280000BF00BF00BF00BF00BF00BF00BF00BFC2
:100E380000BF00BF00BF00BF00BF00BF00BF00BFB2
:100E480000BF00BF00BF00BF00BF00BF00BF00BFA2
:100E580000BF00BF00BF00BF00BF00BF00BF00BF92
:100E680000BF00BF00BF00BF00BF00BF00BF75E7E5
:100E78008E46CAE67047032900F02E811E4A4FF4B9
:100E880000050026BDF80A309BB2002B3FF42EAEB9
:100E98000495BDF80A30E079033B9BB2ADF80A30FF
:100EA8009EF800300EF10301DBB28DF807309EF892
:100EB8000130C0EBC000DBB28DF808309EF802307C
:100EC800D2F800E0DBB28DF806309DF807709DF887
:100ED80008300EEB800C1B0243EA07439DF80670AE
:100EE800BCF804C05EF820003B4303938DF805600E
:100EF800A0F81AC07DE000BF90030020049B5B08A7
:100F08000493004600BF00BF00BF00BF00BF00BF82
:100F180000BF00BF00BF00BF00BF00BF00BF00BFD1
:100F280000BF00BF00BF00BF00BF00BF00BF00BFC1
:100F380000BF00BF00BF00BF00BF00BF00BF00BFB1
:100F480000BF00BF00BF00BF00BF00BF00BF00BFA1
:100F580000BF00BF00BF00BF00BF00BF00BF00BF91
:100F680000BF00BF00BF00BF00BF00BF00BF00BF81
:100F780000BF00BF00BF00BF00BF00BF00BF00BF71
:100F880000BF00BF00BF00BFE07917689DF80530BB
:100F9800C0EBC00007EB800EBEF804E057F8200055
:100FA8000133DBB28DF80530A0F818E0004600BF29
:100FB80000BF00BF00BF00BF00BF00BF00BF00BF31
:100FC80000BF00BF00BF00BF00BF00BF00BF00BF21
:100FD80000BF00BF00BF9DF80530182B7AD0E37919
:100FE8001068C3EBC30300EB8307BF8850F82330B6
:100FF8005F830398049B184280D1004600BF00BF5E
:1010080000BF00BF00BF00BF00BF00BF00BF00BFE0
:1010180000BF00BF00BF00BF00BF00BFE37910687A
:10102800C3EBC30300EB8307BF8850F823301F834B
:101038009DF805300133DBB28DF80530049B5B0861
:101048000493004600BF00BF00BF00BF00BF00BF41
:1010580000BF00BF00BF00BF00BF00BF00BF00BF90
:1010680000BF00BF00BF00BF00BF00BF00BF00BF80
:1010780000BF00BF00BF00BF00BF00BF00BF00BF70
:1010880000BF00BF00BF00BF00BF00BF00BF00BF60
:1010980000BF00BF00BF00BF00BF00BF00BF00BF50
:1010A80000BF00BF00BF00BF00BF00BF00BF00BF40
:1010B80000BF00BF00BF00BF00BF00BF00BF00BF30
:1010C80000BF00BF00BF00BF00BF00BF9DF80530D4
:1010D800182B84D18E46D5E6174A4FF40005002612
:1010E800BDF80A309BB2002B3FF400AD0495BDF863
:1010F8000A300EF10301033B9BB2ADF80A309EF8AB
:101108000030DBB28DF807309EF80130DBB28DF885
:1011180006309EF80230DBB28DF808309DF8077073
:101128009DF806309DF808001B0243EA0743034375
:1011380003938DF80560E0E090030020004600BFAF
:1011480000BF00BF00BF00BF00BF00BF00BF00BF9F
:1011580000BF00BF00BF00BF00BF00BF00BF00BF8F
:1011680000BF00BF00BF00BF00BF00BF00BF00BF7F
:1011780000BF00BF00BF00BF00BF00BF00BF00BF6F
:1011880000BF00BF00BF00BF00BF00BF00BF00BF5F
:1011980000BF00BF00BF00BF00BF00BF00BF00BF4F
:1011A80000BF00BF00BF00BF00BF00BF00BF00BF3F
:1011B80000BF00BF00BF00BF00BF00BF00BF00BF2F
:1011C80000BF00BF00BF00BF00BF00BF00BF00BF1F
:1011D80000BF00BF00BF00BF00BF00BF00BF00BF0F
:1011E80000BF00BF00BF00BF00BF00BF00BF00BFFF
:1011F80000BF00BF00BF00BF00BF00BF00BF00BFEF
:1012080000BF00BF00BF00BF00BF00BF00BF00BFDE
:1012180000BF00BF00BF00BF00BF00BF00BF00BFCE
:1012280000BF00BF00BF00BF00BF00BF00BF00BFBE
:1012380000BF00BF00BF00BF00BF00BF00BF00BFAE
:1012480000BF00BF00BF00BF00BF00BF00BF00BF9E
:1012580000BF00BF00BF00BF00BF00BF00BFE379F1
:101268001068C3EBC30300EB8307BF8850F8233033
:101278005F83004600BF00BF00BF00BF00BF00BFC4
:1012880000BF00BF00BF00BF00BF00BF00BF00BF5E
:1012980000BF00BF00BF00BF00BF00BF00BF00BF4E
:1012A80000BF00BF00BF00BF00BF00BF00BF00BF3E
:1012B80000BF00BF00BF00BF00BF00BF00BF00BF2E
:1012C80000BF00BF00BF00BF00BF00BF00BF00BF1E
:1012D80000BF00BF00BF00BF00BF00BF00BF00BF0E
:1012E80000BF049B5B0804939DF805300133DBB213
:1012F800172B8DF8053000F2E380E3791068C3EB13
:10130800C30300EB8307BF8850F823301F8303987B
:10131800049B18427FF412AF004600BF00BF00BF15
:1013280000BF00BF00BF00BF00BF00BF00BF00BFBD
:1013380000BF00BF00BF00BF00BF00BF00BF00BFAD
:1013480000BF00BF00BF00BF00BF00BF00BF00BF9D
:1013580000BF00BF00BF00BF00BF00BF00BF00BF8D
:1013680000BF00BF00BF00BF00BF00BF00BF00BF7D
:1013780000BF00BF00BF00BF00BF00BF00BF00BF6D
:1013880000BF00BF00BF00BF00BF00BF00BF00BF5D
:1013980000BF00BF00BF00BF00BFE3791068C3EB08
:1013A800C30300EB8307BF8850F823305F830046F0
:1013B80000BF00BF00BF00BF00BF00BF00BF00BF2D
:1013C80000BF00BF00BF00BF00BF00BF00BF00BF1D
:1013D80000BF00BF00BF00BF00BF00BF00BF00BF0D
:1013E80000BF00BF00BF00BF00BF00BF00BF00BFFD
:1013F80000BF00BF00BF00BF00BF00BF00BF00BFED
:1014080000BF00BF00BF00BF00BF00BF00BF00BFDC
:1014180000BF00BF00BF00BF00BF00BF00BF00BFCC
:1014280000BF00BF00BF00BF00BF00BF00BF00BFBC
:1014380000BF00BF00BF00BF00BF00BF00BF00BFAC
:1014480000BF00BF00BF00BF00BF00BF00BF00BF9C
:1014580000BF00BF00BF00BF00BF00BF00BF00BF8C
:1014680000BF00BF00BF00BF00BF00BF00BF00BF7C
:1014780000BF00BF00BF00BF00BF00BF00BF00BF6C
:1014880000BF00BF00BF00BF00BF00BF00BF00BF5C
:1014980000BF00BF00BF00BF00BF00BF00BF00BF4C
:1014A80000BF00BF00BF00BF00BF00BF00BF00BF3C
:1014B80000BF00BF00BF00BF00BF00BF00BF10E7F4
:1014C8008E460DE64388F0B58B4245D9057AC2F3BE
:1014D8000743C2F30724D6B245B16B436C436E434E
:1014E800C3F30723C4F30724C6F3072690F806C0FE
:1014F800C768BCF1060F0CBF042503256943BCF17E
:10150800080F07EB010524D84FF0010E0EFA0CFE68
:101518001EF4D27F0CD11EF0400F0DD11EF0100F1B
:1015280017D0FF2B08BFFE237B546E70AC70F0BD44
:101538007C546B70AE70F0BD7B546C70AE70037AE7
:10154800120E0BB9D2B202E05A43C2F30722EA7074
:10155800F0BD7B546C70AE70F0BD42EA012242EAE5
:1015680000407047408870474A1C037AD2B29A42BA
:1015780070B51ED0013B13F0FF03C4680CD0FF29DF
:101588000FBF4FF6FF71110201F1FF3191FBF3F329
:101598000CBF91FBF3F39BB22546291B868889B2C1
:1015A8008E4205D929785943091205F8011BF4E739
:1015B800027270BD08B500F02FF800F02DF8014B4D
:1015C800186008BD9003002008B5024B1B681B6B10
:1015D800019308BDD001060808B5024B1B68DB6EF5
:1015E800019308BDB801060808B5024B1B685B6883
:1015F800019308BD9C01060808B5024B1B681B69CE
:10160800019308BD9C01060808B5024B1B685B697D
:10161800019308BD9C01060808B5024B1B681B68AE
:10162800019308BDB001060808B5024B1B689B680A
:10163800019308BDB001060808B5024B1B68DB68BA
:10164800019308BDB001060808B5024B1B681B6969
:10165800019308BDB001060808B5024B1B681B6E54
:10166800019308BDAC01060808B5024B1B685B6E08
:10167800019308BDAC01060808B5024B1B689B6EB8
:10168800019308BDAC01060808B5024B1B68DB6E68
:10169800019308BDAC01060808B5024B1B681B6F17
:1016A800019308BDAC01060808B5024B1B685B6FC7
:1016B800019308BDAC01060808B5034B1B68D3F8B5
:1016C8008030019308BD0000AC01060808B5024B44
:1016D8001B68DB69019308BDB401060808B5024B15
:1016E8001B681B6A019308BDB401060808B5024BC4
:1016F8001B689B69019308BDC401060808B5024B25
:101708001B685B6A019308BDC401060808B5024B53
:101718001B689B6A019308BDC401060808B5024B03
:101728001B68DB6A019308BDC401060808B5024BB3
:101738001B681B6B019308BDC401060808B5024B62
:101748001B685B6B019308BDC401060808B5024B12
:101758001B689B6B019308BDC401060808B5024BC2
:101768001B681B6C019308BDC401060808B5024B31
:101778001B681B68019308BDD801060808B5024B11
:101788001B681B69019308BDD801060808B5024B00
:101798001B685B69019308BDD801060808B5024BB0
:1017A8001B689B69019308BDD801060808B5024B60
:1017B8001B68DB69019308BDD801060808B5024B10
:1017C8001B681B6A019308BDD801060808B5024BBF
:1017D8001B685B68019308BDA401060808B5024BA5
:1017E8001B685B69019308BDA401060808B5034B93
:1017F8001B68D3F89030019308BD0000A4010608C7
:1018080008B5034B1B68D3F89C30019308BD000052
:10181800A401060808B5024B1B681B68019308BDA4
:10182800CC01060808B5024B1B685B68019308BD2C
:10183800CC01060808B5024B1B68DB6B019308BD99
:10184800CC01060808B5024B1B681B69019308BD4B
:10185800C801060808B5024B1B681B68019308BD40
:10186800A001060808B5024B1B685B68019308BD18
:10187800A001060808B5024B1B689B68019308BDC8
:10188800A00106080021FFF7A9BF10B58368044628
:1018980013B1032201469847204610BD10B588B001
:1018A8000446684600F07AF9694604A800F098F9F9
:1018B80004A8A047044604A800F029F9684600F0E7
:1018C80026F9204608B010BDF0B507460E46154665
:1018D80085B0102422460021684600F0A0FD0022B1
:1018E80069461046ADF80040029703960195FFF748
:1018F80099FF05B0F0BD7047F8B5064615460C4689
:101908008F18BC4206D0336814F8011B9B68304618
:101918009847F6E72846F8BD0022007CFFF79CBEF2
:101928000021007CFFF7A0BE0021007CFFF7A4BEC9
:101938000021007CFFF7A8BE0021007CFFF7ACBEA9
:1019480010B50446FEF7A5FB204610BD10B50446A9
:1019580008464FF47A73A360044B00212074616039
:101968002360FFF7A9FE204610BD00BF20260A0805
:101978000021007CFFF798BE704710B50446FEF7BB
:1019880088FB204610BDF8B50F4600F10806051D76
:10199800002416F8011D0A22384600F082F8AE42EB
:1019A800044407D0002CF4D02E21384600F04CF81F
:1019B8000444EEE72046F8BD10B59DF8084044EA17
:1019C800032343EA024242EA0161042341600375AA
:1019D80010BD000037B5044D05609DF818500095FE
:1019E800FFF7EAFF03B030BD48260A08014A024B58
:1019F8001A6070470F270A0894030020F8B50646B6
:101A08000D468F180024BD420CD0336815F8011B11
:101A18009B6830469847002801DB0444F3E7002C14
:101A280008BF04462046F8BD70B505460C46084672
:101A380049B100F025FD2B68024621462846BDE83D
:101A48007040DB68184770BD03689B681847012A17
:101A580098BF0A2230B50B468BB000218DF82410B0
:101A68000DF12304B3FBF2F505FB1233DBB2092BAE
:101A780094BF30333733DBB2214604F801392B46A3
:101A8800002DEFD1FFF7D0FF0BB030BD10B422B955
:101A98000368C9B29B6810BC1847D2B210BCFFF7E4
:101AA800D6BFFFF7F3BF10B50446FFF7EEFE20469A
:101AB80010BD0000034800238360034A034900F077
:101AC80043BB00BF9803002070030020AF1A0A0828
:101AD800704710B50446FEF7DCFA204610BD00003A
:101AE80070B504460E46074B0025036040F80C5FAE
:101AF800FFF76AFD30462671FFF7E8FDA56020462E
:101B080070BD00BF3C270A080079FFF7E7BD10B594
:101B180004460068FFF7A6FE204610BD10B504462F
:101B2800006808B1FFF79EFE00232360A36063608E
:101B380010BD38B504460D4600680131FFF79AFE1E
:101B480010B184E82100012038BD10B503680446AF
:101B580013B143688B4207D22046FFF7EAFF20B152
:101B6800A3680BB922681370012010BD70B50E462A
:101B7800114604461546FFF7E8FF18B92046FFF757
:101B8800CDFF09E02A463146A560206800F03CFCFC
:101B98002268A3680021D154204670BD38B50023BF
:101BA800044603604360836003730D4639B10846F9
:101BB80000F066FC294602462046FFF7D7FF20467C
:101BC80038BD884210B50B46044607D0096819B1DC
:101BD8009A68FFF7CBFF01E0FFF7A0FF204610BD92
:101BE80010B5044600230360436083600373FFF766
:101BF800E8FF204610BD006808B100F0F3BB70474D
:101C08004FF69C7337B50D4C002563804FF6FF7374
:101C18002846A3802570FFF7D9FD02A840F8045D87
:101C28002A462946FFF7D8FC019B1E2B04D1032323
:101C3800237011236580A38003B030BDA803002062
:101C4800024B1A68024B1A60704700BF0403002059
:101C5800B0030020704741747047007CFFF77EBDD9
:101C6800007CFFF753BD007CFFF760BD007CFFF7E9
:101C780055BD007CFFF762BD10B50446FEF709FAB2
:101C8800204610BD70B5457C04460E4625B9007C3B
:101C9800FFF764FD002805DD3146207CBDE8704073
:101CA800FFF72CBD284670BD10B5044608461146FE
:101CB800002262604FF47A72A260054A20742260A2
:101CC800012262741A46FFF711FD204610BD00BFBD
:101CD80078270A08007CFFF739BD000038B50C4D9D
:101CE800296811F0010411D12846FEF7D4F968B12A
:101CF800084A2146084B0948FFF7D6FF2846FEF751
:101D0800CFF9074A0749054800F01EFA034838BDCD
:101D18004C04002050040020C8030020B403002015
:101D2800700300205D1C0A08417470477047002149
:101D3800007CFFF733BD0121007CFFF72FBD007C3D
:101D4800FFF724BD007CFFF719BD38B50446007CB9
:101D58000D46FFF71BFD002801DC607C20B12946F9
:101D6800207CFFF723FD012038BD007CFFF726BD4E
:101D780010B50446FEF78DF9204610BD10B504468F
:101D8800002363604FF47A73A360054B0846236011
:101D98000123217463741146FFF7E8FC204610BD47
:101DA800A8270A0810B504461422002100F037FBC2
:101DB800054B20466360054BE36040F20113238125
:101DC8008123238210BD00BF59050020D8040020BC
:101DD80030B50E4D87B001A8FFF7E4FF296811F070
:101DE800010410D12846FEF756F960B101AA214630
:101DF8000748FFF7C3FF2846FEF752F9054A064988
:101E0800034800F0A1F9024807B030BDD40400200F
:101E18005C06002070030020351D0A0810B5044632
:101E28001422002100F0FBFA054B20466360054BA5
:101E3800E36040F2011323818123238210BD00BF98
:101E48000C0700207406002010B50E4C86B001A8BF
:101E5800FFF7E4FF2368DB0710D42046FEF71BF9E1
:101E680060B101AA01210848FFF788FF2046FEF764
:101E780017F9064A0649044800F066F9024806B010
:101E880010BD00BF70060020F80600207003002077
:101E9800351D0A087047002211461046FFF7D2BCCC
:101EA8000348044B044A0549036000F04DB900BFDC
:101EB80010080020D8270A08700300209D1E0A0871
:101EC80008B5144B33B1FFF783FF03681B699847C4
:101ED800002816DC104B33B1FFF700FF03681B69BD
:101EE8009847002810DC0D4B0BB1AFF300800C4B6A
:101EF8007BB1FFF7A9FF03681B699847002806DC38
:101F080008BDAFF30080E5E7AFF30080EBE7AFF380
:101F1800008008BD00000000000000000000000074
:101F28000000000008B5FFF7CBFFFFF76DFB014B82
:101F3800186008BD1C0800200248034A0349121A09
:101F480000F062BA004002400440024080290A08BA
:101F580007B5002300931A466FF07701FFF750FC8E
:101F680003B05DF804FB000007B543880A2B08D0CE
:101F7800502B09D1094B1B683BB103B05DF804EB4A
:101F88001847FFF7E5FF06E0002300931A466FF0B5
:101F98007701FFF735FC03B05DF804FB1408002057
:101FA80038B5104C104D2368AB42104B0CBF0122C2
:101FB80000221A7002D0FFF7BFFF2560FFF714FB5D
:101FC80000F036FA0A4B1BB1FFF70EFBAFF30080A7
:101FD80000210748FFF72EFCBDE8384000210548DE
:101FE800FFF704BC004002401E1C279A1808002076
:101FF80000000000711F0A0810B504460F48FFF7DB
:1020080083FD28B1A4F10D03022B01D8002010BDD7
:1020180000F040F8FFF7ACFC08B1012CF6D9FFF747
:102028005DFEFFF757FE18B1A4F11203012BEDD99D
:10203800172C8CBF0020012010BD00BF50080020C5
:10204800172838B504460D460AD8FF2908D0FFF7E7
:10205800D3FF28B129462046BDE83840FFF7E4BA47
:1020680038BD38B504460D46FFF7E6FAFF2810D00C
:10207800062804D84D2323FA00F0C30709D42046C4
:10208800FFF7BAFF28B129462046BDE83840FFF7D8
:10209800DBBA38BD38B50B4D296811F001040FD1F2
:1020A8002846FDF7F8FF58B121460748FFF74EFCD0
:1020B8002846FDF7F5FF054A0549034800F044F8AE
:1020C800014838BD200800202408002070030020A3
:1020D800FF180A0813B5084C00231A46194600933E
:1020E8002046FFF777FC2046044A054902B0BDE8C0
:1020F800104000F029B800BF380800207003002005
:1021080081190A0870B50C4C0C4E0D4D0021204663
:10211800FFF7E6FC20460B4C3246294600F014F83F
:1021280001212046FFF7DCFC324629462046BDE85F
:10213800704000F009B800BF50080020700300206C
:10214800D91A0A08600800200B460146184600F014
:102158004DB90000244B1A68D0075CBF01221A60F1
:10216800224B1A68D1075CBF01221A60204B1A68FB
:10217800D2075CBF01221A601E4B1A68D0075CBFE9
:1021880001221A601C4B1A68D1075CBF01221A6031
:102198001A4B1A68D2075CBF01221A60184B1A68DA
:1021A800D0075CBF01221A60164B1A68D1075CBFC2
:1021B80001221A60144B1A68D2075CBF01221A6008
:1021C800124B1A68D0075CBF01221A60104B1A68BC
:1021D800D1075CBF01221A600E4B1A68D2075CBF98
:1021E80001221A60704700BF9C0800209808002050
:1021F80094080020900800208C08002088080020FF
:1022080084080020800800207C080020780800202E
:102218007408002070080020184B1A68D1075CBFAA
:1022280001221A60164B1A68D2075CBF01221A6095
:10223800144B1A68D0075CBF01221A60124B1A6847
:10224800D1075CBF01221A60104B1A68D2075CBF25
:1022580001221A600E4B1A68D0075CBF01221A606F
:102268000C4B1A68D1075CBF01221A600A4B1A6826
:10227800D2075CBF01221A60704700BFBC0800206B
:10228800B8080020B4080020B0080020AC080020DE
:10229800A8080020A4080020A0080020184B1A68ED
:1022A800D1075CBF01221A60164B1A68D2075CBFBF
:1022B80001221A60144B1A68D0075CBF01221A6009
:1022C800124B1A68D1075CBF01221A60104B1A68BA
:1022D800D2075CBF01221A600E4B1A68D0075CBF98
:1022E80001221A600C4B1A68D1075CBF01221A60E0
:1022F8000A4B1A68D2075CBF01221A60704700BFF8
:10230800DC080020D8080020D4080020D0080020CD
:10231800CC080020C8080020C4080020C0080020FD
:10232800244B1A68D0075CBF01221A60224B1A6836
:10233800D1075CBF01221A60204B1A68D2075CBF24
:1023480001221A601E4B1A68D0075CBF01221A606E
:102358001C4B1A68D1075CBF01221A601A4B1A6815
:10236800D2075CBF01221A60184B1A68D0075CBFFD
:1023780001221A60164B1A68D1075CBF01221A6045
:10238800144B1A68D2075CBF01221A60124B1A68F4
:10239800D0075CBF01221A60104B1A68D1075CBFD6
:1023A80001221A600E4B1A68D2075CBF01221A601C
:1023B800704700BF0C09002008090020040900200C
:1023C80000090020FC080020F8080020F40800207C
:1023D800F0080020EC080020E8080020E4080020AD
:1023E800E00800200A22002100F0D8B810B5054CFA
:1023F80013462CB10A4601460220AFF3008010BDF7
:10240800204610BD0000000010B5431E0A4491424A
:1024180004D011F8014B03F8014FF8E710BD03464B
:102428000244934202D003F8011BFAE77047000008
:1024380038B5124B05461C68A36BD3B91820FFF7B3
:1024480009FA43F20E33A06303804AF6CD33438082
:1024580041F2342383804EF26D63C3804DF6EC6302
:102468000381052343810B23838101220023C0E9D3
:102478000423A36B00221D615A6138BD6C03002040
:10248800034613F8012B002AFBD1181A01387047AC
:102498002DE9F0470F4680463F48D0F800903D466A
:1024A80015F8014B09EB0400407800F0080000F033
:1024B800FF0608B12F46F2E72D2C03D1BD1C7C780E
:1024C800012603E02B2C04BF7C78BD1C13B1102B14
:1024D8000AD15BE0302C57D1287800F0DF0058286B
:1024E8004DD16C7810230235002E14BF4FF0004CEC
:1024F8006FF0004CBCFBF3FA0027384603FB1ACCFC
:1025080009EB040E9EF801E01EF0040F01D0303CE8
:102518000BE01EF0030E1BD0BEF1010F0CBF4FF0F5
:10252800370E4FF0570ECEEB0404A34210DDB7F17F
:10253800FF3F0AD0504506D801D1644503DC03FBB0
:102548000040012701E04FF0FF3715F8014BD7E7AE
:102558007B1C0CD1002E4FF0220314BF4FF000401B
:102568006FF00040C8F800302AB9BDE8F08706B11E
:10257800404272B107B1691E1160BDE8F08730248E
:10258800002BB1D10823AFE70A23ADE7302CA3D045
:10259800AAE7BDE8F08700BF0803002013460A46F3
:1025A800014602480068FFF773BF00BF6C030020B4
:1025B8001D000A085D000A0889000A088D000A083B
:1025C800000000006272696768746E657373007357
:1025D80065744272696768746E657373006E6F74B0
:1025E8006966794F6E43616C6C0064656661756CF1
:1025F80074526F7574696E65000000002C0100004C
:1026080018000000F40100002C0100005000000038
:102618000000000000000000FF180A0849190A0815
:1026280021190A0801190A0829190A0831190A087A
:1026380039190A0841190A080000000000000000C2
:102648008F190A0881190A0883190A0866006C6E2E
:1026580000666E00636F64650064657461696C0090
:102668000D0A00253031307520005D2000256400FA
:102678002C200028293A2000205B00636F64652025
:102688003D200025690064657461696C73203D20F4
:1026980000626175640053657269616C005553424C
:1026A80053657269616C310074797065007061728C
:1026B800616D00636D6400696400686E6400737422
:1026C800726D0066696C74006C766C0061646448B5
:1026D800616E646C65720072656D6F766548616ED7
:1026E800646C657200656E756D48616E646C6572C8
:1026F80073004A534F4E53747265616D4C6F67484F
:10270800616E646C657200617070006E6F6E65005A
:10271800747261636500696E666F007761726E003E
:102728006572726F720070616E696300000000006C
:1027380000000000D91A0A08DB1A0A085A00252BDB
:102748003033643A253032750025592D256D2D25F5
:10275800645425483A254D3A2553257A0061736318
:1027680074696D65000000000000000000000000B2
:102778005D1C0A08811C0A088D1C0A08051A0A082B
:10278800691C0A08751C0A086F1C0A087B1C0A08C1
:102798005F1C0A08631C0A08000000000000000013
:1027A800351D0A08791D0A08531D0A08051A0A0862
:1027B8004D1D0A08371D0A083F1D0A08731D0A081F
:1027C800471D0A08311D0A0800000000000000002B
:1027D8009F1E0A08002020202020202020202828B2
:1027E80028282820202020202020202020202020C9
:1027F8002020202020881010101010101010101009
:102808001010101010040404040404040404041038
:1028180010101010101041414141414101010101C6
:102828000101010101010101010101010101010190
:10283800101010101010424242424242020202029C
:102848000202020202020202020202020202020260
:102858001010101020000000000000000000000010
:102868000000000000000000000000000000000060
:102878000000000000000000000000000000000050
:102888000000000000000000000000000000000040
:102898000000000000000000000000000000000030
:1028A8000000000000000000000000000000000020
:1028B8000000000000000000000000000000000010
:1028C8000000000000000000000000000000000000
:1028D80000000000000000000000000000000000F0
:1028E80000000000000000000000000000000000E0
:1028F80000000000000000000000000000000000D0
:1029080000000000000000000000000000000000BF
:1029180000000000000000000000000000000000AF
:10292800000000000000000000000000000000009F
:102938000000000000000000430000002D020A080B
:10294800BD150A08F5190A08BD1A0A08091C0A085B
:10295800491C0A08A91E0A08DD200A080D210A08D0
:102968005D210A0821220A08A5220A0829230A0843
:08297800000000000000000057
:042980000000000053
:102984006400000065270A08DC270A08000000002C
:10299400E0280A0800290A0820290A080000000083
:1029A40000000000000000000000000040290A08A8
:1029B4000000000000000000000000000000000013
:1029C4000000000000000000000000000000000003
:1029D40000000000000000000000000000000000F3
:1029E4000000000000000000000000000C030020B4
:1029F400FFFFFFFF00000102030405060708090AA0
:102A04000B0C0D0E0F101112131415161718191A9A
:082A14001B1C1D1E1F202800E1
:042A1C0078563412A2
:04000005080A0018CD
:00000001FF
